:100000000206EDE4F521752215752304F52C12097D
:10001000BE12097F120779753000753100753225DF
:1000200075330075340075352475360075370075E5
:10003000382B7B007A0079261203DF75300075318A
:100040000075322875330075340075352975360012
:1000500075370075382A7B007A0079271204BD3085
:10006000022BE52C64017025E522B52620E523B599
:10007000251B30B0051208E180F8E4F52CD292F58A
:10008000217F011208827FF47E0112086220B009EC
:100090007FF47E011208620521E521701585273065
:1000A000852831852932852A33AB26AD25AF241228
:1000B0000108E521B4011275300075310075322355
:1000C0007B007A00792212058CE521B4021275308A
:1000D000007531007532237B007A0079221201FD10
:1000E000E521B403097B007A00792C1207D5E521BC
:1000F000640460030200177F01120882E4F5217F87
:1001000014FE1208620200178F2D8D2E8B2FE534FE
:10011000652D70030201FC852D34E52F75F00A84EE
:100120002430FB7D057F01120930E52F75F00A842C
:10013000E5F02430FF12096F7F3A12096FE52E7542
:10014000F00A842430FF12096FE52E75F00A84E569
:10015000F02430FF12096F7F3A12096FE52D75F018
:100160000A842430FF12096FE52D75F00A84E5F04A
:100170002430FF12096FE53075F003A424D5F58211
:10018000E43406F583E493FB740193FA740293F963
:100190007D027F021208C27F2012096FE53175F0DF
:1001A0000A842430FF12096FE53175F00A84E5F006
:1001B0002430FF12096F7BFF7A0679561208A2E5F8
:1001C0003275F00A842430FF12096FE53275F00AA7
:1001D00084E5F02430FF12096F7BFF7A067958120C
:1001E00008A2E53375F00A842430FF12096FE53365
:1001F00075F00A84E5F02430FF12096F228B2D8AF6
:100200002E892F7BFF7A0679757D027F011208C245
:100210007FC1120882AB2DAA2EA92F1202EE75F013
:100220000A842430FF12096FAB2DAA2EA92F1202C7
:10023000EE75F00A84E5F02430FF12096F7F3A1260
:10024000096FAB30AA31A9321202EE75F00A84248C
:1002500030FF12096FAB30AA31A9321202EE75F0ED
:100260000A84E5F02430FF12096F7BFF7A06796A71
:100270001208A220B12F7FF47E01120862AB30AACF
:1002800031A93274011203341202EED3943B4015AB
:10029000AB2DAA2EA92F7401120334AB30AA31A9B9
:1002A00032E412035620B2457FF47E01120862AB9D
:1002B0002DAA2EA92F1202EED39400401DAB30AA16
:1002C00031A9321202EED394004002801B743B121B
:1002D0000356AB2DAA2EA92F800EAB30AA31A9321E
:1002E0001202EED39400400574FF12033422BB01C6
:1002F0000689828A83E0225002E722BBFE02E322C3
:1003000089828A83E49322BB010CE58229F582E588
:10031000833AF583E0225006E92582F8E622BBFE07
:1003200006E92582F8E222E58229F582E5833AF59D
:1003300083E49322BB010989828A83F8E028F022B2
:10034000500327F722BBFE05F8E328F3228A8389AE
:1003500082F8E4932822BB010689828A83F0225026
:1003600002F722BBFE01F322F8BB010DE58229F55D
:1003700082E5833AF583E8F0225006E92582C8F643
:1003800022BBFE05E92582C8F222BC000BBE002973
:10039000EF8DF084FFADF022E4CCF875F008EF2F7C
:1003A000FFEE33FEEC33FCEE9DEC984005FCEE9D39
:1003B000FE0FD5F0E9E4CEFD22EDF8F5F0EE842055
:1003C000D21CFEADF075F008EF2FFFED33FD4007B6
:1003D000985006D5F0F222C398FD0FD5F0EA228B93
:1003E0002D8A2E892F1209A27FD0120947E4FF120D
:1003F00009471209A27FD1120947D20112083F8F83
:100400003BD20112083F8F3AC20112083F8F3912C6
:1004100009B7533B7FE53BC4540F75F00AA4FFE5D1
:100420003B540F2FAB33AA34A935120356533A7FEE
:10043000E53AC4540F75F00AA4FFE53A540F2FAB08
:1004400030AA31A932120356E53930E633AB36AA69
:1004500037A938740C120356E53930E504D2008010
:1004600002C20053391FE539C4540F75F00AA4FFC6
:10047000E539540F2FAB2DAA2EA92F120356803A1F
:10048000AB36AA37A938741812035653393FE539E9
:10049000C4540F75F00AA4FFE539540F2FAB2DAAF1
:1004A0002EA92F120356AB2DAA2EA92F1202EEC38E
:1004B000940C5004C2008002D200A200228B2D8A2C
:1004C0002E892F1209A27FD01209477F03120947F4
:1004D0001209A27FD1120947D20112083FAB2DAAFF
:1004E0002EA92FEF120356D20112083FAB30AA31CA
:1004F000A932EF120356D20112083FAB33AA34A936
:1005000035EF120356C20112083FAB36AA37A9389D
:10051000EF1203561209B7AB2DAA2EA92F1202EE25
:100520005407120356AB30AA31A9321202EE543FDF
:10053000120356AB30AA31A9321202EEFFC4540F97
:1005400075F00AA4FEEF540F2E120356AB33AA34F3
:10055000A9351202EE541F120356AB33AA34A93543
:100560001202EEFFC4540F75F00AA4FEEF540F2ED2
:10057000120356AB36AA37A9381202EEFFC4540F45
:1005800075F00AA4FEEF540F2E0203568B2D8A2E0F
:10059000892F7BFF7A06795C7D027F011208C27F7A
:1005A000C1120882AB2DAA2EA92F1202EE75F00AF5
:1005B000842430FF12096FAB2DAA2EA92F1202EE50
:1005C00075F00A84E5F02430FF12096F7F3A1209B2
:1005D0006FAB30AA31A9321202EE75F00A842430D2
:1005E000FF12096FAB30AA31A9321202EE75F00A80
:1005F00084E5F02430FF12096F7BFF7A06796A12D6
:1006000008A220B11E7FF47E01120862AB2DAA2E33
:10061000A92F74011203341202EED394184004E49B
:1006200012035620B21A7FF47E01120862AB2DAA83
:100630002EA92F1202EED39400400574FF1203344A
:10064000225375004D6F00547500576500546800C3
:100650004672005361002F002F323000416C6172EE
:100660006D277320486F75723A00202020202020CB
:100670002020202000416C61726D2773204D696E2F
:100680003A2020202000416C61726D20436C6F6322
:100690006B3A20202020004F4E20202020202020B8
:1006A000202020202020004F4646202020202020EF
:1006B00020202020202000507265737320274E6573
:1006C00078742720746F200073687574206D65201E
:1006D000757021706C732100FF0641FF0644FF0610
:1006E00047FF064AFF064DFF0650FF0653787FE49A
:1006F000F6D8FD75813B020734020003E493A3F8AA
:10070000E493A34003F68001F208DFF48029E49328
:10071000A3F85407240CC8C333C4540F4420C8831F
:100720004004F456800146F6DFE4800B0102040821
:10073000102040809009C3E47E019360BCA3FF5465
:100740003F30E509541FFEE493A360010ECF54C06F
:1007500025E060A840B8E493A3FAE493A3F8E493F7
:10076000A3C8C582C8CAC583CAF0A3C8C582C8CAFF
:10077000C583CADFE9DEE780BEC2A0C2A27F147EC5
:10078000001208627F0312091FD2A2C2A27F057E57
:10079000001208627F0312091FD2A2C2A27F641254
:1007A000099B7F0312091FD2A2C2A27F017E001201
:1007B00008627F0212091FD2A2C2A21F7E00120885
:1007C000627F281208827F0C1208827F0112088241
:1007D0007F060208828B2D8A2E892F7BFF7A06796D
:1007E000867D027F011208C27FC112088230B103E8
:1007F00020B2097FF47E01120862B2027BFF300250
:10080000127A0679971208A2AB2DAA2EA92F74018D
:100810000203567A0679A71208A2228F2D1209A286
:100820007FD0120947AF2D1209471209A27FD112BA
:100830000947C20112083F8F2E1209B7AF2E22E4DA
:10084000FFFED291D290EF25E0FF309103430701E4
:10085000C2900EBE08EC3001051209A980031209EE
:10086000B022E4FDFCC3ED9FEC9E5015E4FBFA0BB7
:10087000BB00010AEB647B4A70F50DBD00010C80E2
:10088000E422AE07C2A0120918D2A2C2A2EF24FE2F
:1008900060030470077F027E000208627F25120950
:1008A0009B228B388A39893AE4FDAB38AA39A93AB8
:1008B0008D82758300120307FF600612096F0D8099
:1008C000E9228B358A368937BF01047F8080027F19
:1008D000C0ED142FFF120882AB35AA36A9370208E3
:1008E000A27BFF7A0679B77D027F011208C27FC121
:1008F0001208827BFF7A0679C81208A2C292228F60
:100900002D8D2E1209A27FD0120947AF2D12094753
:10091000AF2E1209470209B712095DD2A2C2A2EF97
:10092000A2E392A7A2E292A6A2E192A51392A42228
:100930008B35BF01047F8080027FC0ED142FFF1232
:100940000882AF3502096FE4FEEF339291D290C274
:1009500090EF25E0FF0EBE08F012098E22EF3392D1
:10096000A7EFA2E692A6A2E592A5A2E492A422AEE7
:1009700007D2A0120918D2A2C2A27F2902099BE4C1
:10098000FF12081BAD0753057FE4FF0208FFD29159
:10099000D290A2919201C290A20122AE071FEE70E6
:1009A000FA22D290C291C29022C291D290C29022D9
:1009B000D291D290C29022C291D290D29122D29062
:0609C000D29122C10200E9
:00000001FF
